{
  "contractName": "Route",
  "abi": [
    {
      "constant": true,
      "inputs": [],
      "name": "routeID",
      "outputs": [
        {
          "name": "",
          "type": "string"
        }
      ],
      "payable": false,
      "stateMutability": "view",
      "type": "function"
    },
    {
      "constant": true,
      "inputs": [],
      "name": "manager",
      "outputs": [
        {
          "name": "",
          "type": "address"
        }
      ],
      "payable": false,
      "stateMutability": "view",
      "type": "function"
    },
    {
      "constant": true,
      "inputs": [
        {
          "name": "",
          "type": "uint256"
        }
      ],
      "name": "tickets",
      "outputs": [
        {
          "name": "travelDescription",
          "type": "string"
        },
        {
          "name": "amount",
          "type": "uint256"
        },
        {
          "name": "isUsed",
          "type": "bool"
        }
      ],
      "payable": false,
      "stateMutability": "view",
      "type": "function"
    },
    {
      "constant": true,
      "inputs": [],
      "name": "busStopCount",
      "outputs": [
        {
          "name": "",
          "type": "uint256"
        }
      ],
      "payable": false,
      "stateMutability": "view",
      "type": "function"
    },
    {
      "constant": true,
      "inputs": [
        {
          "name": "",
          "type": "uint256"
        }
      ],
      "name": "routeDescription",
      "outputs": [
        {
          "name": "",
          "type": "bytes32"
        }
      ],
      "payable": false,
      "stateMutability": "view",
      "type": "function"
    },
    {
      "constant": true,
      "inputs": [
        {
          "name": "",
          "type": "uint256"
        }
      ],
      "name": "trips",
      "outputs": [
        {
          "name": "tripDescription",
          "type": "string"
        },
        {
          "name": "startDateTime",
          "type": "uint256"
        },
        {
          "name": "amount",
          "type": "uint256"
        },
        {
          "name": "approversCount",
          "type": "uint256"
        },
        {
          "name": "isComplete",
          "type": "bool"
        },
        {
          "name": "reportedArrivalTimes",
          "type": "uint256"
        }
      ],
      "payable": false,
      "stateMutability": "view",
      "type": "function"
    },
    {
      "inputs": [
        {
          "name": "creator",
          "type": "address"
        },
        {
          "name": "route",
          "type": "string"
        },
        {
          "name": "count",
          "type": "uint256"
        },
        {
          "name": "description",
          "type": "bytes32[]"
        }
      ],
      "payable": false,
      "stateMutability": "nonpayable",
      "type": "constructor"
    },
    {
      "anonymous": false,
      "inputs": [
        {
          "indexed": false,
          "name": "index",
          "type": "uint256"
        }
      ],
      "name": "ValueLogger",
      "type": "event"
    },
    {
      "constant": false,
      "inputs": [
        {
          "name": "description",
          "type": "string"
        },
        {
          "name": "dateTime",
          "type": "uint256"
        }
      ],
      "name": "createTrip",
      "outputs": [],
      "payable": false,
      "stateMutability": "nonpayable",
      "type": "function"
    },
    {
      "constant": false,
      "inputs": [
        {
          "name": "tripIndex",
          "type": "uint256"
        },
        {
          "name": "ticketIndex",
          "type": "uint256"
        }
      ],
      "name": "approveTrip",
      "outputs": [],
      "payable": false,
      "stateMutability": "nonpayable",
      "type": "function"
    },
    {
      "constant": false,
      "inputs": [
        {
          "name": "index",
          "type": "uint256"
        }
      ],
      "name": "completeTrip",
      "outputs": [],
      "payable": false,
      "stateMutability": "nonpayable",
      "type": "function"
    },
    {
      "constant": false,
      "inputs": [
        {
          "name": "description",
          "type": "string"
        }
      ],
      "name": "purchaseTicket",
      "outputs": [
        {
          "name": "",
          "type": "uint256"
        }
      ],
      "payable": true,
      "stateMutability": "payable",
      "type": "function"
    },
    {
      "constant": false,
      "inputs": [
        {
          "name": "tripIndex",
          "type": "uint256"
        },
        {
          "name": "busStop",
          "type": "bytes32"
        },
        {
          "name": "arrivalTime",
          "type": "uint256"
        }
      ],
      "name": "arrival",
      "outputs": [],
      "payable": false,
      "stateMutability": "nonpayable",
      "type": "function"
    },
    {
      "constant": true,
      "inputs": [],
      "name": "getNumberOfTrips",
      "outputs": [
        {
          "name": "",
          "type": "uint256"
        }
      ],
      "payable": false,
      "stateMutability": "view",
      "type": "function"
    },
    {
      "constant": true,
      "inputs": [],
      "name": "getNumberOfTickets",
      "outputs": [
        {
          "name": "",
          "type": "uint256"
        }
      ],
      "payable": false,
      "stateMutability": "view",
      "type": "function"
    }
  ],
  "bytecode": "0x6080604052600060045560006005553480156200001b57600080fd5b50604051620014f4380380620014f48339810180604052810190808051906020019092919080518201929190602001805190602001909291908051820192919050505083600360006101000a81548173ffffffffffffffffffffffffffffffffffffffff021916908373ffffffffffffffffffffffffffffffffffffffff1602179055508260009080519060200190620000b7929190620000e2565b50816001819055508060029080519060200190620000d792919062000169565b505050505062000211565b828054600181600116156101000203166002900490600052602060002090601f016020900481019282601f106200012557805160ff191683800117855562000156565b8280016001018555821562000156579182015b828111156200015557825182559160200191906001019062000138565b5b509050620001659190620001c1565b5090565b828054828255906000526020600020908101928215620001ae579160200282015b82811115620001ad5782518290600019169055916020019190600101906200018a565b5b509050620001bd9190620001e9565b5090565b620001e691905b80821115620001e2576000816000905550600101620001c8565b5090565b90565b6200020e91905b808211156200020a576000816000905550600101620001f0565b5090565b90565b6112d380620002216000396000f3006080604052600436106100c5576000357c0100000000000000000000000000000000000000000000000000000000900463ffffffff16806307522814146100ca578063225c3788146100f55780632ca121a714610185578063481c6a75146101f857806350b447121461024f5780636804bb53146103075780639582260a14610332578063a6b01b451461035d578063c1917e79146103cd578063c7e0af79146103fa578063ce265ad014610431578063f6824a7c1461047a578063f923ba9f14610547575b600080fd5b3480156100d657600080fd5b506100df61058c565b6040518082815260200191505060405180910390f35b34801561010157600080fd5b5061010a610596565b6040518080602001828103825283818151815260200191508051906020019080838360005b8381101561014a57808201518184015260208101905061012f565b50505050905090810190601f1680156101775780820380516001836020036101000a031916815260200191505b509250505060405180910390f35b34801561019157600080fd5b506101f6600480360381019080803590602001908201803590602001908080601f016020809104026020016040519081016040528093929190818152602001838380828437820191505050505050919291929080359060200190929190505050610634565b005b34801561020457600080fd5b5061020d6107de565b604051808273ffffffffffffffffffffffffffffffffffffffff1673ffffffffffffffffffffffffffffffffffffffff16815260200191505060405180910390f35b34801561025b57600080fd5b5061027a60048036038101908080359060200190929190505050610804565b604051808060200184815260200183151515158152602001828103825285818151815260200191508051906020019080838360005b838110156102ca5780820151818401526020810190506102af565b50505050905090810190601f1680156102f75780820380516001836020036101000a031916815260200191505b5094505050505060405180910390f35b34801561031357600080fd5b5061031c6108e2565b6040518082815260200191505060405180910390f35b34801561033e57600080fd5b506103476108e8565b6040518082815260200191505060405180910390f35b6103b7600480360381019080803590602001908201803590602001908080601f01602080910402602001604051908101604052809392919081815260200183838082843782019150505050505091929192905050506108f2565b6040518082815260200191505060405180910390f35b3480156103d957600080fd5b506103f860048036038101908080359060200190929190505050610ab5565b005b34801561040657600080fd5b5061042f6004803603810190808035906020019092919080359060200190929190505050610d72565b005b34801561043d57600080fd5b5061045c60048036038101908080359060200190929190505050611035565b60405180826000191660001916815260200191505060405180910390f35b34801561048657600080fd5b506104a560048036038101908080359060200190929190505050611058565b604051808060200187815260200186815260200185815260200184151515158152602001838152602001828103825288818151815260200191508051906020019080838360005b838110156105075780820151818401526020810190506104ec565b50505050905090810190601f1680156105345780820380516001836020036101000a031916815260200191505b5097505050505050505060405180910390f35b34801561055357600080fd5b5061058a60048036038101908080359060200190929190803560001916906020019092919080359060200190929190505050611148565b005b6000600454905090565b60008054600181600116156101000203166002900480601f01602080910402602001604051908101604052809291908181526020018280546001816001161561010002031660029004801561062c5780601f106106015761010080835404028352916020019161062c565b820191906000526020600020905b81548152906001019060200180831161060f57829003601f168201915b505050505081565b61063c6111a5565b600360009054906101000a900473ffffffffffffffffffffffffffffffffffffffff1673ffffffffffffffffffffffffffffffffffffffff163373ffffffffffffffffffffffffffffffffffffffff16141515610701576040517f08c379a00000000000000000000000000000000000000000000000000000000081526004018080602001828103825260178152602001807f4f6e6c79204d616e6167657220697320616c6c6f77656400000000000000000081525060200191505060405180910390fd5b60c0604051908101604052808481526020018381526020016000815260200160008152602001600015158152602001600081525090506006819080600181540180825580915050906001820390600052602060002090600802016000909192909190915060008201518160000190805190602001906107819291906111de565b5060208201518160010155604082015181600201556060820151816003015560808201518160040160006101000a81548160ff02191690831515021790555060a08201518160050155505050600160045401600481905550505050565b600360009054906101000a900473ffffffffffffffffffffffffffffffffffffffff1681565b60078181548110151561081357fe5b9060005260206000209060030201600091509050806000018054600181600116156101000203166002900480601f0160208091040260200160405190810160405280929190818152602001828054600181600116156101000203166002900480156108bf5780601f10610894576101008083540402835291602001916108bf565b820191906000526020600020905b8154815290600101906020018083116108a257829003601f168201915b5050505050908060010154908060020160009054906101000a900460ff16905083565b60015481565b6000600554905090565b6000806108fd61125e565b600034111515610975576040517f08c379a00000000000000000000000000000000000000000000000000000000081526004018080602001828103825260198152602001807f506c656173652070617920666f7220746865207469636b65740000000000000081525060200191505060405180910390fd5b60606040519081016040528085815260200134815260200160001515815250905060078054905091506007819080600181540180825580915050906001820390600052602060002090600302016000909192909190915060008201518160000190805190602001906109e89291906111de565b506020820151816001015560408201518160020160006101000a81548160ff021916908315150217905550505050336008600084815260200190815260200160002060006101000a81548173ffffffffffffffffffffffffffffffffffffffff021916908373ffffffffffffffffffffffffffffffffffffffff1602179055506001600554016005819055507f0a51b1385c26fe73e32df22a7afebd5c8b7949dcd7c0c96be29b5e6d2b6de1c5826040518082815260200191505060405180910390a18192505050919050565b6000600360009054906101000a900473ffffffffffffffffffffffffffffffffffffffff1673ffffffffffffffffffffffffffffffffffffffff163373ffffffffffffffffffffffffffffffffffffffff16141515610b7c576040517f08c379a00000000000000000000000000000000000000000000000000000000081526004018080602001828103825260178152602001807f4f6e6c79204d616e6167657220697320616c6c6f77656400000000000000000081525060200191505060405180910390fd5b600682815481101515610b8b57fe5b906000526020600020906008020190508060040160009054906101000a900460ff16151515610c22576040517f08c379a00000000000000000000000000000000000000000000000000000000081526004018080602001828103825260158152602001807f546970206d757374206e6f7420636f6d706c657465000000000000000000000081525060200191505060405180910390fd5b6005600460015402811515610c3357fe5b04816005015410151515610cd5576040517f08c379a00000000000000000000000000000000000000000000000000000000081526004018080602001828103825260348152602001807f747269702073686f756c642068617665207265706f72746564206174206c656181526020017f737420383025206172726976616c2074696d657300000000000000000000000081525060400191505060405180910390fd5b600360009054906101000a900473ffffffffffffffffffffffffffffffffffffffff1673ffffffffffffffffffffffffffffffffffffffff166108fc82600201549081150290604051600060405180830381858888f19350505050158015610d41573d6000803e3d6000fd5b5060018160040160006101000a81548160ff0219169083151502179055508060020154600954016009819055505050565b600080600684815481101515610d8457fe5b90600052602060002090600802019150600783815481101515610da357fe5b906000526020600020906003020190508060020160009054906101000a900460ff16151515610e3a576040517f08c379a00000000000000000000000000000000000000000000000000000000081526004018080602001828103825260178152602001807f5469636b657420697320616c726561647920757365642100000000000000000081525060200191505060405180910390fd5b3373ffffffffffffffffffffffffffffffffffffffff166008600085815260200190815260200160002060009054906101000a900473ffffffffffffffffffffffffffffffffffffffff1673ffffffffffffffffffffffffffffffffffffffff16141515610f36576040517f08c379a00000000000000000000000000000000000000000000000000000000081526004018080602001828103825260268152602001807f5365656d73206c696b6520697420697320736f6d656f6e6520656c736527732081526020017f7469636b6574000000000000000000000000000000000000000000000000000081525060400191505060405180910390fd5b8160040160009054906101000a900460ff16151515610fbd576040517f08c379a00000000000000000000000000000000000000000000000000000000081526004018080602001828103825260198152602001807f54726970206d757374206e6f7420626520636f6d706c6574650000000000000081525060200191505060405180910390fd5b81600301600081548092919060010191905055508060010154826002015401826002018190555060018160020160006101000a81548160ff021916908315150217905550600182600601600085815260200190815260200160002060006101000a81548160ff02191690831515021790555050505050565b60028181548110151561104457fe5b906000526020600020016000915090505481565b60068181548110151561106757fe5b9060005260206000209060080201600091509050806000018054600181600116156101000203166002900480601f0160208091040260200160405190810160405280929190818152602001828054600181600116156101000203166002900480156111135780601f106110e857610100808354040283529160200191611113565b820191906000526020600020905b8154815290600101906020018083116110f657829003601f168201915b5050505050908060010154908060020154908060030154908060040160009054906101000a900460ff16908060050154905086565b600060068481548110151561115957fe5b9060005260206000209060080201905081816007016000856000191660001916815260200190815260200160002081905550806005016000815480929190600101919050555050505050565b60c06040519081016040528060608152602001600081526020016000815260200160008152602001600015158152602001600081525090565b828054600181600116156101000203166002900490600052602060002090601f016020900481019282601f1061121f57805160ff191683800117855561124d565b8280016001018555821561124d579182015b8281111561124c578251825591602001919060010190611231565b5b50905061125a9190611282565b5090565b60606040519081016040528060608152602001600081526020016000151581525090565b6112a491905b808211156112a0576000816000905550600101611288565b5090565b905600a165627a7a72305820ec91d1268cbbbe9c3cfdcfb2953ac60a3378946b864a89204e0d3d0d37197f560029",
  "source": "/* to do\naddress the error: un implemented  feature : nested arrays not yet implemented\n\nEvaluation: read / write delay wrt to the number of commuters purchasing tickets\nand number of ongoing trips will be assessed using the rinkby testnet\n\n\nroute description will be the list of bus-stops\nevery trip will report its arrival time at every bus-stop\n\nif a trip has reported its arrival at more than 80% of the bus-stops, it will  be\neligible for the completion\n\nthis will take care of the issue when the bus-operator does not complete the trip\n*/\n\npragma solidity ^0.4.24;\ncontract RouteCreator{\n    /* Contains all the routes that are deployed on the RINKEBY NETWORK */\n    address[] public deployedRoutes;\n\n    /* This function calls the constructor of Route Contract which will create a new Route. */\n    function createRoute(string routeID, uint count, bytes32[] description) public{\n        address newRoute = new Route(msg.sender, routeID, count, description);\n        deployedRoutes.push(newRoute);\n    }\n    \n    function getDeployedRoutes() public view  returns (address[]) {\n        return deployedRoutes;\n    }\n}\n\ncontract Route{\n    struct Trip {\n        string tripDescription;\n        uint256 startDateTime;\n        uint amount;\n        uint approversCount;\n        bool isComplete;\n        uint reportedArrivalTimes;\n        mapping (uint=> bool) approvers;\n        mapping (bytes32 => uint256) arrivalsTime;\n    }\n    struct Ticket {\n        string travelDescription;\n        uint amount;\n        bool isUsed;\n    }\n\n    event ValueLogger (\n        uint index\n    );\n    string public routeID;\n    uint public busStopCount;\n    bytes32[] public routeDescription;\n    address public manager;\n    uint tripsCount = 0;\n    uint ticketsCount = 0;\n    Trip[] public trips;\n    Ticket[] public tickets;\n    // maps the ticketindex to the commuter\n    mapping (uint => address) commuter;\n    uint totalAmount;\n\n    /* This modifier/function checks whether the sender is the manager of the contract or not.  */\n    modifier restricted(){\n        require(msg.sender == manager, \"Only Manager is allowed\");\n        _;\n    }\n    constructor (address creator, string route, uint count, bytes32[] description) public {\n        manager = creator;\n        routeID = route;\n        busStopCount = count;\n        routeDescription = description;\n    }    \n\n    /* In the above deployed Routes, this function creates a new trip  also it is restricted only to the manager*/\n    function createTrip (string description, uint256 dateTime) public restricted {\n        Trip memory newTrip = Trip ({\n            tripDescription: description,\n            startDateTime: dateTime,\n            amount:0,\n            approversCount:0,\n            isComplete: false,\n            reportedArrivalTimes : 0\n        });\n        trips.push(newTrip);\n        tripsCount = tripsCount + 1; \n    }\n\n    /* When the trip ends, commuter may approve the trip. approving request is carried out by approveTrip function */\n    function approveTrip(uint tripIndex, uint ticketIndex) public {\n        Trip storage trip = trips[tripIndex];\n        Ticket storage ticket = tickets[ticketIndex];\n        \n        // trying to approve trip using a valid ticket\n        require (!ticket.isUsed, \"Ticket is already used!\");\n        // ticket for approval must be submitted by the commuter who purchsed the ticket\n        require (commuter[ticketIndex] == msg.sender, \"Seems like it is someone else's ticket\");\n        // trip must not be complete \n        require(!trip.isComplete, \"Trip must not be complete\");\n        trip.approversCount++;\n        trip.amount = trip.amount + ticket.amount;\n        //can not approve other trip using same ticket\n        ticket.isUsed = true;\n        trip.approvers[ticketIndex] = true;\n    }\n\n\n    /* This function is called when the user gets off the bus and want to complete the trip and \n    the trip can only be completed if the this trip has been approved by almost 80% of the commuters*/\n    function completeTrip(uint index) public restricted {\n        Trip storage trip = trips[index];\n        require(!trip.isComplete, \"Tip must not complete\");\n        //trip should have reported at least 80% arrival times\n        require(trip.reportedArrivalTimes >= busStopCount*4/5, \"trip should have reported at least 80% arrival times\");\n        manager.transfer(trip.amount);\n        trip.isComplete = true;\n        totalAmount = totalAmount + trip.amount;\n    }\n\n    /* This is a payable function where the user is required to pay for the ticket. */\n    function purchaseTicket(string description) public payable returns (uint) {\n        require(msg.value>0, \"Please pay for the ticket\");\n        uint newIndex;\n        Ticket memory newTicket = Ticket({\n            travelDescription: description,\n            amount: msg.value,\n            isUsed: false\n        });\n        newIndex = tickets.length;\n        tickets.push(newTicket);\n        commuter[newIndex] = msg.sender;\n        ticketsCount = ticketsCount + 1;\n        emit ValueLogger(newIndex);\n        return newIndex;\n    }\n\n    function arrival(uint tripIndex, bytes32 busStop, uint256 arrivalTime) public {\n        Trip storage trip = trips[tripIndex];\n        trip.arrivalsTime[busStop] = arrivalTime;\n        trip.reportedArrivalTimes++;\n    }\n\n    function getNumberOfTrips() public view returns (uint){\n        return tripsCount;\n    }\n\n    function getNumberOfTickets() public view returns(uint){\n        return ticketsCount;\n    }\n}\n",
  "sourcePath": "/home/nish/Documents/Projects/bus-ticketing-system-react/ethereum/eth/contracts/Route.sol",
  "compiler": {
    "name": "solc",
    "version": "0.4.24+commit.e67f0147.Emscripten.clang"
  },
  "schemaVersion": "2.0.1",
  "updatedAt": "2018-10-16T09:38:40.984Z"
}